{
  "_format": "hh-sol-artifact-1",
  "contractName": "Afrochella2022",
  "sourceName": "contracts/Afrochella2022.sol",
  "abi": [
    {
      "inputs": [],
      "stateMutability": "payable",
      "type": "constructor"
    },
    {
      "anonymous": false,
      "inputs": [
        {
          "indexed": true,
          "internalType": "address",
          "name": "owner",
          "type": "address"
        },
        {
          "indexed": true,
          "internalType": "address",
          "name": "approved",
          "type": "address"
        },
        {
          "indexed": true,
          "internalType": "uint256",
          "name": "tokenId",
          "type": "uint256"
        }
      ],
      "name": "Approval",
      "type": "event"
    },
    {
      "anonymous": false,
      "inputs": [
        {
          "indexed": true,
          "internalType": "address",
          "name": "owner",
          "type": "address"
        },
        {
          "indexed": true,
          "internalType": "address",
          "name": "operator",
          "type": "address"
        },
        {
          "indexed": false,
          "internalType": "bool",
          "name": "approved",
          "type": "bool"
        }
      ],
      "name": "ApprovalForAll",
      "type": "event"
    },
    {
      "anonymous": false,
      "inputs": [
        {
          "indexed": true,
          "internalType": "address",
          "name": "previousOwner",
          "type": "address"
        },
        {
          "indexed": true,
          "internalType": "address",
          "name": "newOwner",
          "type": "address"
        }
      ],
      "name": "OwnershipTransferred",
      "type": "event"
    },
    {
      "anonymous": false,
      "inputs": [
        {
          "indexed": true,
          "internalType": "address",
          "name": "from",
          "type": "address"
        },
        {
          "indexed": true,
          "internalType": "address",
          "name": "to",
          "type": "address"
        },
        {
          "indexed": true,
          "internalType": "uint256",
          "name": "tokenId",
          "type": "uint256"
        }
      ],
      "name": "Transfer",
      "type": "event"
    },
    {
      "inputs": [
        {
          "internalType": "address",
          "name": "to",
          "type": "address"
        },
        {
          "internalType": "uint256",
          "name": "tokenId",
          "type": "uint256"
        }
      ],
      "name": "approve",
      "outputs": [],
      "stateMutability": "nonpayable",
      "type": "function"
    },
    {
      "inputs": [
        {
          "internalType": "address",
          "name": "owner",
          "type": "address"
        }
      ],
      "name": "balanceOf",
      "outputs": [
        {
          "internalType": "uint256",
          "name": "",
          "type": "uint256"
        }
      ],
      "stateMutability": "view",
      "type": "function"
    },
    {
      "inputs": [
        {
          "internalType": "uint256",
          "name": "tokenId",
          "type": "uint256"
        }
      ],
      "name": "getApproved",
      "outputs": [
        {
          "internalType": "address",
          "name": "",
          "type": "address"
        }
      ],
      "stateMutability": "view",
      "type": "function"
    },
    {
      "inputs": [
        {
          "internalType": "address",
          "name": "owner",
          "type": "address"
        },
        {
          "internalType": "address",
          "name": "operator",
          "type": "address"
        }
      ],
      "name": "isApprovedForAll",
      "outputs": [
        {
          "internalType": "bool",
          "name": "",
          "type": "bool"
        }
      ],
      "stateMutability": "view",
      "type": "function"
    },
    {
      "inputs": [],
      "name": "isPublicMintEnabled",
      "outputs": [
        {
          "internalType": "bool",
          "name": "",
          "type": "bool"
        }
      ],
      "stateMutability": "view",
      "type": "function"
    },
    {
      "inputs": [],
      "name": "maxPerWallet",
      "outputs": [
        {
          "internalType": "uint256",
          "name": "",
          "type": "uint256"
        }
      ],
      "stateMutability": "view",
      "type": "function"
    },
    {
      "inputs": [],
      "name": "maxSupply",
      "outputs": [
        {
          "internalType": "uint256",
          "name": "",
          "type": "uint256"
        }
      ],
      "stateMutability": "view",
      "type": "function"
    },
    {
      "inputs": [
        {
          "internalType": "uint256",
          "name": "quantity_",
          "type": "uint256"
        }
      ],
      "name": "mint",
      "outputs": [],
      "stateMutability": "payable",
      "type": "function"
    },
    {
      "inputs": [],
      "name": "mintPrice",
      "outputs": [
        {
          "internalType": "uint256",
          "name": "",
          "type": "uint256"
        }
      ],
      "stateMutability": "view",
      "type": "function"
    },
    {
      "inputs": [],
      "name": "name",
      "outputs": [
        {
          "internalType": "string",
          "name": "",
          "type": "string"
        }
      ],
      "stateMutability": "view",
      "type": "function"
    },
    {
      "inputs": [],
      "name": "owner",
      "outputs": [
        {
          "internalType": "address",
          "name": "",
          "type": "address"
        }
      ],
      "stateMutability": "view",
      "type": "function"
    },
    {
      "inputs": [
        {
          "internalType": "uint256",
          "name": "tokenId",
          "type": "uint256"
        }
      ],
      "name": "ownerOf",
      "outputs": [
        {
          "internalType": "address",
          "name": "",
          "type": "address"
        }
      ],
      "stateMutability": "view",
      "type": "function"
    },
    {
      "inputs": [],
      "name": "renounceOwnership",
      "outputs": [],
      "stateMutability": "nonpayable",
      "type": "function"
    },
    {
      "inputs": [
        {
          "internalType": "address",
          "name": "from",
          "type": "address"
        },
        {
          "internalType": "address",
          "name": "to",
          "type": "address"
        },
        {
          "internalType": "uint256",
          "name": "tokenId",
          "type": "uint256"
        }
      ],
      "name": "safeTransferFrom",
      "outputs": [],
      "stateMutability": "nonpayable",
      "type": "function"
    },
    {
      "inputs": [
        {
          "internalType": "address",
          "name": "from",
          "type": "address"
        },
        {
          "internalType": "address",
          "name": "to",
          "type": "address"
        },
        {
          "internalType": "uint256",
          "name": "tokenId",
          "type": "uint256"
        },
        {
          "internalType": "bytes",
          "name": "_data",
          "type": "bytes"
        }
      ],
      "name": "safeTransferFrom",
      "outputs": [],
      "stateMutability": "nonpayable",
      "type": "function"
    },
    {
      "inputs": [
        {
          "internalType": "address",
          "name": "operator",
          "type": "address"
        },
        {
          "internalType": "bool",
          "name": "approved",
          "type": "bool"
        }
      ],
      "name": "setApprovalForAll",
      "outputs": [],
      "stateMutability": "nonpayable",
      "type": "function"
    },
    {
      "inputs": [
        {
          "internalType": "string",
          "name": "baseTokenUri_",
          "type": "string"
        }
      ],
      "name": "setBaseTokenUri",
      "outputs": [],
      "stateMutability": "nonpayable",
      "type": "function"
    },
    {
      "inputs": [
        {
          "internalType": "bool",
          "name": "isPublicMintEnabled_",
          "type": "bool"
        }
      ],
      "name": "setPublicMintEnabled",
      "outputs": [],
      "stateMutability": "nonpayable",
      "type": "function"
    },
    {
      "inputs": [
        {
          "internalType": "bytes4",
          "name": "interfaceId",
          "type": "bytes4"
        }
      ],
      "name": "supportsInterface",
      "outputs": [
        {
          "internalType": "bool",
          "name": "",
          "type": "bool"
        }
      ],
      "stateMutability": "view",
      "type": "function"
    },
    {
      "inputs": [],
      "name": "symbol",
      "outputs": [
        {
          "internalType": "string",
          "name": "",
          "type": "string"
        }
      ],
      "stateMutability": "view",
      "type": "function"
    },
    {
      "inputs": [
        {
          "internalType": "uint256",
          "name": "tokenId_",
          "type": "uint256"
        }
      ],
      "name": "tokenURI",
      "outputs": [
        {
          "internalType": "string",
          "name": "",
          "type": "string"
        }
      ],
      "stateMutability": "view",
      "type": "function"
    },
    {
      "inputs": [],
      "name": "totalSupply",
      "outputs": [
        {
          "internalType": "uint256",
          "name": "",
          "type": "uint256"
        }
      ],
      "stateMutability": "view",
      "type": "function"
    },
    {
      "inputs": [
        {
          "internalType": "address",
          "name": "from",
          "type": "address"
        },
        {
          "internalType": "address",
          "name": "to",
          "type": "address"
        },
        {
          "internalType": "uint256",
          "name": "tokenId",
          "type": "uint256"
        }
      ],
      "name": "transferFrom",
      "outputs": [],
      "stateMutability": "nonpayable",
      "type": "function"
    },
    {
      "inputs": [
        {
          "internalType": "address",
          "name": "newOwner",
          "type": "address"
        }
      ],
      "name": "transferOwnership",
      "outputs": [],
      "stateMutability": "nonpayable",
      "type": "function"
    },
    {
      "inputs": [
        {
          "internalType": "address",
          "name": "",
          "type": "address"
        }
      ],
      "name": "walletMints",
      "outputs": [
        {
          "internalType": "uint256",
          "name": "",
          "type": "uint256"
        }
      ],
      "stateMutability": "view",
      "type": "function"
    },
    {
      "inputs": [],
      "name": "withdraw",
      "outputs": [],
      "stateMutability": "nonpayable",
      "type": "function"
    },
    {
      "inputs": [],
      "name": "withdrawWallet",
      "outputs": [
        {
          "internalType": "address payable",
          "name": "",
          "type": "address"
        }
      ],
      "stateMutability": "view",
      "type": "function"
    }
  ],
  "bytecode": "0x60806040526040518060400160405280600c81526020017f4166726f6368656c6c61323200000000000000000000000000000000000000008152506040518060400160405280600581526020017f4146413232000000000000000000000000000000000000000000000000000000815250816000908051906020019062000088929190620001bf565b508060019080519060200190620000a1929190620001bf565b505050620000c4620000b8620000f160201b60201c565b620000f960201b60201c565b662386f26fc1000060078190555060006008819055506103e76009819055506003600a81905550620002d4565b600033905090565b6000600660009054906101000a900473ffffffffffffffffffffffffffffffffffffffff16905081600660006101000a81548173ffffffffffffffffffffffffffffffffffffffff021916908373ffffffffffffffffffffffffffffffffffffffff1602179055508173ffffffffffffffffffffffffffffffffffffffff168173ffffffffffffffffffffffffffffffffffffffff167f8be0079c531659141344cd1fd0a4f28419497f9722a3daafe3b4186f6b6457e060405160405180910390a35050565b828054620001cd906200026f565b90600052602060002090601f016020900481019282620001f157600085556200023d565b82601f106200020c57805160ff19168380011785556200023d565b828001600101855582156200023d579182015b828111156200023c5782518255916020019190600101906200021f565b5b5090506200024c919062000250565b5090565b5b808211156200026b57600081600090555060010162000251565b5090565b600060028204905060018216806200028857607f821691505b602082108114156200029f576200029e620002a5565b5b50919050565b7f4e487b7100000000000000000000000000000000000000000000000000000000600052602260045260246000fd5b6134bf80620002e46000396000f3fe60806040526004361061019c5760003560e01c8063715018a6116100ec578063a22cb4651161008a578063d5abeb0111610064578063d5abeb0114610593578063e985e9c5146105be578063f0293fd3146105fb578063f2fde38b146106385761019c565b8063a22cb46514610504578063b88d4fde1461052d578063c87b56dd146105565761019c565b80638da5cb5b116100c65780638da5cb5b1461046957806395652cfa1461049457806395d89b41146104bd578063a0712d68146104e85761019c565b8063715018a6146103fe578063818668d71461041557806385d178f41461043e5761019c565b806323b872dd11610159578063453c231011610133578063453c23101461032e5780636352211e146103595780636817c76c1461039657806370a08231146103c15761019c565b806323b872dd146102c55780633ccfd60b146102ee57806342842e0e146103055761019c565b80630116bc2d146101a157806301ffc9a7146101cc57806306fdde0314610209578063081812fc14610234578063095ea7b31461027157806318160ddd1461029a575b600080fd5b3480156101ad57600080fd5b506101b6610661565b6040516101c391906128a4565b60405180910390f35b3480156101d857600080fd5b506101f360048036038101906101ee919061239d565b610674565b60405161020091906128a4565b60405180910390f35b34801561021557600080fd5b5061021e610756565b60405161022b91906128bf565b60405180910390f35b34801561024057600080fd5b5061025b60048036038101906102569190612434565b6107e8565b6040516102689190612822565b60405180910390f35b34801561027d57600080fd5b5061029860048036038101906102939190612338565b61086d565b005b3480156102a657600080fd5b506102af610985565b6040516102bc9190612b81565b60405180910390f35b3480156102d157600080fd5b506102ec60048036038101906102e79190612232565b61098b565b005b3480156102fa57600080fd5b506103036109eb565b005b34801561031157600080fd5b5061032c60048036038101906103279190612232565b610b38565b005b34801561033a57600080fd5b50610343610b58565b6040516103509190612b81565b60405180910390f35b34801561036557600080fd5b50610380600480360381019061037b9190612434565b610b5e565b60405161038d9190612822565b60405180910390f35b3480156103a257600080fd5b506103ab610c10565b6040516103b89190612b81565b60405180910390f35b3480156103cd57600080fd5b506103e860048036038101906103e391906121cd565b610c16565b6040516103f59190612b81565b60405180910390f35b34801561040a57600080fd5b50610413610cce565b005b34801561042157600080fd5b5061043c60048036038101906104379190612374565b610d56565b005b34801561044a57600080fd5b50610453610def565b604051610460919061283d565b60405180910390f35b34801561047557600080fd5b5061047e610e15565b60405161048b9190612822565b60405180910390f35b3480156104a057600080fd5b506104bb60048036038101906104b691906123ef565b610e3f565b005b3480156104c957600080fd5b506104d2610ed1565b6040516104df91906128bf565b60405180910390f35b61050260048036038101906104fd9190612434565b610f63565b005b34801561051057600080fd5b5061052b600480360381019061052691906122fc565b61118f565b005b34801561053957600080fd5b50610554600480360381019061054f9190612281565b6111a5565b005b34801561056257600080fd5b5061057d60048036038101906105789190612434565b611207565b60405161058a91906128bf565b60405180910390f35b34801561059f57600080fd5b506105a86112e3565b6040516105b59190612b81565b60405180910390f35b3480156105ca57600080fd5b506105e560048036038101906105e091906121f6565b6112e9565b6040516105f291906128a4565b60405180910390f35b34801561060757600080fd5b50610622600480360381019061061d91906121cd565b61137d565b60405161062f9190612b81565b60405180910390f35b34801561064457600080fd5b5061065f600480360381019061065a91906121cd565b611395565b005b600b60009054906101000a900460ff1681565b60007f80ac58cd000000000000000000000000000000000000000000000000000000007bffffffffffffffffffffffffffffffffffffffffffffffffffffffff1916827bffffffffffffffffffffffffffffffffffffffffffffffffffffffff1916148061073f57507f5b5e139f000000000000000000000000000000000000000000000000000000007bffffffffffffffffffffffffffffffffffffffffffffffffffffffff1916827bffffffffffffffffffffffffffffffffffffffffffffffffffffffff1916145b8061074f575061074e8261148d565b5b9050919050565b60606000805461076590612de1565b80601f016020809104026020016040519081016040528092919081815260200182805461079190612de1565b80156107de5780601f106107b3576101008083540402835291602001916107de565b820191906000526020600020905b8154815290600101906020018083116107c157829003601f168201915b5050505050905090565b60006107f3826114f7565b610832576040517f08c379a000000000000000000000000000000000000000000000000000000000815260040161082990612aa1565b60405180910390fd5b6004600083815260200190815260200160002060009054906101000a900473ffffffffffffffffffffffffffffffffffffffff169050919050565b600061087882610b5e565b90508073ffffffffffffffffffffffffffffffffffffffff168373ffffffffffffffffffffffffffffffffffffffff1614156108e9576040517f08c379a00000000000000000000000000000000000000000000000000000000081526004016108e090612b01565b60405180910390fd5b8073ffffffffffffffffffffffffffffffffffffffff16610908611563565b73ffffffffffffffffffffffffffffffffffffffff161480610937575061093681610931611563565b6112e9565b5b610976576040517f08c379a000000000000000000000000000000000000000000000000000000000815260040161096d90612a21565b60405180910390fd5b610980838361156b565b505050565b60085481565b61099c610996611563565b82611624565b6109db576040517f08c379a00000000000000000000000000000000000000000000000000000000081526004016109d290612b21565b60405180910390fd5b6109e6838383611702565b505050565b6109f3611563565b73ffffffffffffffffffffffffffffffffffffffff16610a11610e15565b73ffffffffffffffffffffffffffffffffffffffff1614610a67576040517f08c379a0000000000000000000000000000000000000000000000000000000008152600401610a5e90612ae1565b60405180910390fd5b6000600d60009054906101000a900473ffffffffffffffffffffffffffffffffffffffff1673ffffffffffffffffffffffffffffffffffffffff1647604051610aaf9061280d565b60006040518083038185875af1925050503d8060008114610aec576040519150601f19603f3d011682016040523d82523d6000602084013e610af1565b606091505b5050905080610b35576040517f08c379a0000000000000000000000000000000000000000000000000000000008152600401610b2c90612b61565b60405180910390fd5b50565b610b53838383604051806020016040528060008152506111a5565b505050565b600a5481565b6000806002600084815260200190815260200160002060009054906101000a900473ffffffffffffffffffffffffffffffffffffffff169050600073ffffffffffffffffffffffffffffffffffffffff168173ffffffffffffffffffffffffffffffffffffffff161415610c07576040517f08c379a0000000000000000000000000000000000000000000000000000000008152600401610bfe90612a61565b60405180910390fd5b80915050919050565b60075481565b60008073ffffffffffffffffffffffffffffffffffffffff168273ffffffffffffffffffffffffffffffffffffffff161415610c87576040517f08c379a0000000000000000000000000000000000000000000000000000000008152600401610c7e90612a41565b60405180910390fd5b600360008373ffffffffffffffffffffffffffffffffffffffff1673ffffffffffffffffffffffffffffffffffffffff168152602001908152602001600020549050919050565b610cd6611563565b73ffffffffffffffffffffffffffffffffffffffff16610cf4610e15565b73ffffffffffffffffffffffffffffffffffffffff1614610d4a576040517f08c379a0000000000000000000000000000000000000000000000000000000008152600401610d4190612ae1565b60405180910390fd5b610d546000611969565b565b610d5e611563565b73ffffffffffffffffffffffffffffffffffffffff16610d7c610e15565b73ffffffffffffffffffffffffffffffffffffffff1614610dd2576040517f08c379a0000000000000000000000000000000000000000000000000000000008152600401610dc990612ae1565b60405180910390fd5b80600b60006101000a81548160ff02191690831515021790555050565b600d60009054906101000a900473ffffffffffffffffffffffffffffffffffffffff1681565b6000600660009054906101000a900473ffffffffffffffffffffffffffffffffffffffff16905090565b610e47611563565b73ffffffffffffffffffffffffffffffffffffffff16610e65610e15565b73ffffffffffffffffffffffffffffffffffffffff1614610ebb576040517f08c379a0000000000000000000000000000000000000000000000000000000008152600401610eb290612ae1565b60405180910390fd5b8181600c9190610ecc92919061200f565b505050565b606060018054610ee090612de1565b80601f0160208091040260200160405190810160405280929190818152602001828054610f0c90612de1565b8015610f595780601f10610f2e57610100808354040283529160200191610f59565b820191906000526020600020905b815481529060010190602001808311610f3c57829003601f168201915b5050505050905090565b600b60009054906101000a900460ff16610fb2576040517f08c379a0000000000000000000000000000000000000000000000000000000008152600401610fa990612921565b60405180910390fd5b60075481610fc09190612c8b565b3414611001576040517f08c379a0000000000000000000000000000000000000000000000000000000008152600401610ff8906128e1565b60405180910390fd5b600954816008546110129190612c35565b1115611053576040517f08c379a000000000000000000000000000000000000000000000000000000000815260040161104a90612a01565b60405180910390fd5b600a5481600e60003373ffffffffffffffffffffffffffffffffffffffff1673ffffffffffffffffffffffffffffffffffffffff168152602001908152602001600020546110a19190612c35565b11156110e2576040517f08c379a00000000000000000000000000000000000000000000000000000000081526004016110d990612ac1565b60405180910390fd5b60005b8181101561118b57600060016008546110fe9190612c35565b90506008600081548092919061111390612e44565b9190505550600e60003373ffffffffffffffffffffffffffffffffffffffff1673ffffffffffffffffffffffffffffffffffffffff168152602001908152602001600020600081548092919061116890612e44565b91905055506111773382611a2f565b50808061118390612e44565b9150506110e5565b5050565b6111a161119a611563565b8383611a4d565b5050565b6111b66111b0611563565b83611624565b6111f5576040517f08c379a00000000000000000000000000000000000000000000000000000000081526004016111ec90612b21565b60405180910390fd5b61120184848484611bba565b50505050565b6060611212826114f7565b611251576040517f08c379a000000000000000000000000000000000000000000000000000000000815260040161124890612b41565b60405180910390fd5b600c805461125e90612de1565b80601f016020809104026020016040519081016040528092919081815260200182805461128a90612de1565b80156112d75780601f106112ac576101008083540402835291602001916112d7565b820191906000526020600020905b8154815290600101906020018083116112ba57829003601f168201915b50505050509050919050565b60095481565b6000600560008473ffffffffffffffffffffffffffffffffffffffff1673ffffffffffffffffffffffffffffffffffffffff16815260200190815260200160002060008373ffffffffffffffffffffffffffffffffffffffff1673ffffffffffffffffffffffffffffffffffffffff16815260200190815260200160002060009054906101000a900460ff16905092915050565b600e6020528060005260406000206000915090505481565b61139d611563565b73ffffffffffffffffffffffffffffffffffffffff166113bb610e15565b73ffffffffffffffffffffffffffffffffffffffff1614611411576040517f08c379a000000000000000000000000000000000000000000000000000000000815260040161140890612ae1565b60405180910390fd5b600073ffffffffffffffffffffffffffffffffffffffff168173ffffffffffffffffffffffffffffffffffffffff161415611481576040517f08c379a000000000000000000000000000000000000000000000000000000000815260040161147890612941565b60405180910390fd5b61148a81611969565b50565b60007f01ffc9a7000000000000000000000000000000000000000000000000000000007bffffffffffffffffffffffffffffffffffffffffffffffffffffffff1916827bffffffffffffffffffffffffffffffffffffffffffffffffffffffff1916149050919050565b60008073ffffffffffffffffffffffffffffffffffffffff166002600084815260200190815260200160002060009054906101000a900473ffffffffffffffffffffffffffffffffffffffff1673ffffffffffffffffffffffffffffffffffffffff1614159050919050565b600033905090565b816004600083815260200190815260200160002060006101000a81548173ffffffffffffffffffffffffffffffffffffffff021916908373ffffffffffffffffffffffffffffffffffffffff160217905550808273ffffffffffffffffffffffffffffffffffffffff166115de83610b5e565b73ffffffffffffffffffffffffffffffffffffffff167f8c5be1e5ebec7d5bd14f71427d1e84f3dd0314c0f7b2291e5b200ac8c7c3b92560405160405180910390a45050565b600061162f826114f7565b61166e576040517f08c379a0000000000000000000000000000000000000000000000000000000008152600401611665906129e1565b60405180910390fd5b600061167983610b5e565b90508073ffffffffffffffffffffffffffffffffffffffff168473ffffffffffffffffffffffffffffffffffffffff1614806116bb57506116ba81856112e9565b5b806116f957508373ffffffffffffffffffffffffffffffffffffffff166116e1846107e8565b73ffffffffffffffffffffffffffffffffffffffff16145b91505092915050565b8273ffffffffffffffffffffffffffffffffffffffff1661172282610b5e565b73ffffffffffffffffffffffffffffffffffffffff1614611778576040517f08c379a000000000000000000000000000000000000000000000000000000000815260040161176f90612961565b60405180910390fd5b600073ffffffffffffffffffffffffffffffffffffffff168273ffffffffffffffffffffffffffffffffffffffff1614156117e8576040517f08c379a00000000000000000000000000000000000000000000000000000000081526004016117df906129a1565b60405180910390fd5b6117f3838383611c16565b6117fe60008261156b565b6001600360008573ffffffffffffffffffffffffffffffffffffffff1673ffffffffffffffffffffffffffffffffffffffff168152602001908152602001600020600082825461184e9190612ce5565b925050819055506001600360008473ffffffffffffffffffffffffffffffffffffffff1673ffffffffffffffffffffffffffffffffffffffff16815260200190815260200160002060008282546118a59190612c35565b92505081905550816002600083815260200190815260200160002060006101000a81548173ffffffffffffffffffffffffffffffffffffffff021916908373ffffffffffffffffffffffffffffffffffffffff160217905550808273ffffffffffffffffffffffffffffffffffffffff168473ffffffffffffffffffffffffffffffffffffffff167fddf252ad1be2c89b69c2b068fc378daa952ba7f163c4a11628f55a4df523b3ef60405160405180910390a4611964838383611c1b565b505050565b6000600660009054906101000a900473ffffffffffffffffffffffffffffffffffffffff16905081600660006101000a81548173ffffffffffffffffffffffffffffffffffffffff021916908373ffffffffffffffffffffffffffffffffffffffff1602179055508173ffffffffffffffffffffffffffffffffffffffff168173ffffffffffffffffffffffffffffffffffffffff167f8be0079c531659141344cd1fd0a4f28419497f9722a3daafe3b4186f6b6457e060405160405180910390a35050565b611a49828260405180602001604052806000815250611c20565b5050565b8173ffffffffffffffffffffffffffffffffffffffff168373ffffffffffffffffffffffffffffffffffffffff161415611abc576040517f08c379a0000000000000000000000000000000000000000000000000000000008152600401611ab3906129c1565b60405180910390fd5b80600560008573ffffffffffffffffffffffffffffffffffffffff1673ffffffffffffffffffffffffffffffffffffffff16815260200190815260200160002060008473ffffffffffffffffffffffffffffffffffffffff1673ffffffffffffffffffffffffffffffffffffffff16815260200190815260200160002060006101000a81548160ff0219169083151502179055508173ffffffffffffffffffffffffffffffffffffffff168373ffffffffffffffffffffffffffffffffffffffff167f17307eab39ab6107e8899845ad3d59bd9653f200f220920489ca2b5937696c3183604051611bad91906128a4565b60405180910390a3505050565b611bc5848484611702565b611bd184848484611c7b565b611c10576040517f08c379a0000000000000000000000000000000000000000000000000000000008152600401611c0790612901565b60405180910390fd5b50505050565b505050565b505050565b611c2a8383611e12565b611c376000848484611c7b565b611c76576040517f08c379a0000000000000000000000000000000000000000000000000000000008152600401611c6d90612901565b60405180910390fd5b505050565b6000611c9c8473ffffffffffffffffffffffffffffffffffffffff16611fec565b15611e05578373ffffffffffffffffffffffffffffffffffffffff1663150b7a02611cc5611563565b8786866040518563ffffffff1660e01b8152600401611ce79493929190612858565b602060405180830381600087803b158015611d0157600080fd5b505af1925050508015611d3257506040513d601f19601f82011682018060405250810190611d2f91906123c6565b60015b611db5573d8060008114611d62576040519150601f19603f3d011682016040523d82523d6000602084013e611d67565b606091505b50600081511415611dad576040517f08c379a0000000000000000000000000000000000000000000000000000000008152600401611da490612901565b60405180910390fd5b805181602001fd5b63150b7a0260e01b7bffffffffffffffffffffffffffffffffffffffffffffffffffffffff1916817bffffffffffffffffffffffffffffffffffffffffffffffffffffffff191614915050611e0a565b600190505b949350505050565b600073ffffffffffffffffffffffffffffffffffffffff168273ffffffffffffffffffffffffffffffffffffffff161415611e82576040517f08c379a0000000000000000000000000000000000000000000000000000000008152600401611e7990612a81565b60405180910390fd5b611e8b816114f7565b15611ecb576040517f08c379a0000000000000000000000000000000000000000000000000000000008152600401611ec290612981565b60405180910390fd5b611ed760008383611c16565b6001600360008473ffffffffffffffffffffffffffffffffffffffff1673ffffffffffffffffffffffffffffffffffffffff1681526020019081526020016000206000828254611f279190612c35565b92505081905550816002600083815260200190815260200160002060006101000a81548173ffffffffffffffffffffffffffffffffffffffff021916908373ffffffffffffffffffffffffffffffffffffffff160217905550808273ffffffffffffffffffffffffffffffffffffffff16600073ffffffffffffffffffffffffffffffffffffffff167fddf252ad1be2c89b69c2b068fc378daa952ba7f163c4a11628f55a4df523b3ef60405160405180910390a4611fe860008383611c1b565b5050565b6000808273ffffffffffffffffffffffffffffffffffffffff163b119050919050565b82805461201b90612de1565b90600052602060002090601f01602090048101928261203d5760008555612084565b82601f1061205657803560ff1916838001178555612084565b82800160010185558215612084579182015b82811115612083578235825591602001919060010190612068565b5b5090506120919190612095565b5090565b5b808211156120ae576000816000905550600101612096565b5090565b60006120c56120c084612bc1565b612b9c565b9050828152602081018484840111156120dd57600080fd5b6120e8848285612d9f565b509392505050565b6000813590506120ff8161342d565b92915050565b60008135905061211481613444565b92915050565b6000813590506121298161345b565b92915050565b60008151905061213e8161345b565b92915050565b600082601f83011261215557600080fd5b81356121658482602086016120b2565b91505092915050565b60008083601f84011261218057600080fd5b8235905067ffffffffffffffff81111561219957600080fd5b6020830191508360018202830111156121b157600080fd5b9250929050565b6000813590506121c781613472565b92915050565b6000602082840312156121df57600080fd5b60006121ed848285016120f0565b91505092915050565b6000806040838503121561220957600080fd5b6000612217858286016120f0565b9250506020612228858286016120f0565b9150509250929050565b60008060006060848603121561224757600080fd5b6000612255868287016120f0565b9350506020612266868287016120f0565b9250506040612277868287016121b8565b9150509250925092565b6000806000806080858703121561229757600080fd5b60006122a5878288016120f0565b94505060206122b6878288016120f0565b93505060406122c7878288016121b8565b925050606085013567ffffffffffffffff8111156122e457600080fd5b6122f087828801612144565b91505092959194509250565b6000806040838503121561230f57600080fd5b600061231d858286016120f0565b925050602061232e85828601612105565b9150509250929050565b6000806040838503121561234b57600080fd5b6000612359858286016120f0565b925050602061236a858286016121b8565b9150509250929050565b60006020828403121561238657600080fd5b600061239484828501612105565b91505092915050565b6000602082840312156123af57600080fd5b60006123bd8482850161211a565b91505092915050565b6000602082840312156123d857600080fd5b60006123e68482850161212f565b91505092915050565b6000806020838503121561240257600080fd5b600083013567ffffffffffffffff81111561241c57600080fd5b6124288582860161216e565b92509250509250929050565b60006020828403121561244657600080fd5b6000612454848285016121b8565b91505092915050565b61246681612d2b565b82525050565b61247581612d19565b82525050565b61248481612d3d565b82525050565b600061249582612bf2565b61249f8185612c08565b93506124af818560208601612dae565b6124b881612f1a565b840191505092915050565b60006124ce82612bfd565b6124d88185612c24565b93506124e8818560208601612dae565b6124f181612f1a565b840191505092915050565b6000612509601083612c24565b915061251482612f2b565b602082019050919050565b600061252c603283612c24565b915061253782612f54565b604082019050919050565b600061254f601383612c24565b915061255a82612fa3565b602082019050919050565b6000612572602683612c24565b915061257d82612fcc565b604082019050919050565b6000612595602583612c24565b91506125a08261301b565b604082019050919050565b60006125b8601c83612c24565b91506125c38261306a565b602082019050919050565b60006125db602483612c24565b91506125e682613093565b604082019050919050565b60006125fe601983612c24565b9150612609826130e2565b602082019050919050565b6000612621602c83612c24565b915061262c8261310b565b604082019050919050565b6000612644600883612c24565b915061264f8261315a565b602082019050919050565b6000612667603883612c24565b915061267282613183565b604082019050919050565b600061268a602a83612c24565b9150612695826131d2565b604082019050919050565b60006126ad602983612c24565b91506126b882613221565b604082019050919050565b60006126d0602083612c24565b91506126db82613270565b602082019050919050565b60006126f3602c83612c24565b91506126fe82613299565b604082019050919050565b6000612716601183612c24565b9150612721826132e8565b602082019050919050565b6000612739602083612c24565b915061274482613311565b602082019050919050565b600061275c602183612c24565b91506127678261333a565b604082019050919050565b600061277f600083612c19565b915061278a82613389565b600082019050919050565b60006127a2603183612c24565b91506127ad8261338c565b604082019050919050565b60006127c5601583612c24565b91506127d0826133db565b602082019050919050565b60006127e8600f83612c24565b91506127f382613404565b602082019050919050565b61280781612d95565b82525050565b600061281882612772565b9150819050919050565b6000602082019050612837600083018461246c565b92915050565b6000602082019050612852600083018461245d565b92915050565b600060808201905061286d600083018761246c565b61287a602083018661246c565b61288760408301856127fe565b8181036060830152612899818461248a565b905095945050505050565b60006020820190506128b9600083018461247b565b92915050565b600060208201905081810360008301526128d981846124c3565b905092915050565b600060208201905081810360008301526128fa816124fc565b9050919050565b6000602082019050818103600083015261291a8161251f565b9050919050565b6000602082019050818103600083015261293a81612542565b9050919050565b6000602082019050818103600083015261295a81612565565b9050919050565b6000602082019050818103600083015261297a81612588565b9050919050565b6000602082019050818103600083015261299a816125ab565b9050919050565b600060208201905081810360008301526129ba816125ce565b9050919050565b600060208201905081810360008301526129da816125f1565b9050919050565b600060208201905081810360008301526129fa81612614565b9050919050565b60006020820190508181036000830152612a1a81612637565b9050919050565b60006020820190508181036000830152612a3a8161265a565b9050919050565b60006020820190508181036000830152612a5a8161267d565b9050919050565b60006020820190508181036000830152612a7a816126a0565b9050919050565b60006020820190508181036000830152612a9a816126c3565b9050919050565b60006020820190508181036000830152612aba816126e6565b9050919050565b60006020820190508181036000830152612ada81612709565b9050919050565b60006020820190508181036000830152612afa8161272c565b9050919050565b60006020820190508181036000830152612b1a8161274f565b9050919050565b60006020820190508181036000830152612b3a81612795565b9050919050565b60006020820190508181036000830152612b5a816127b8565b9050919050565b60006020820190508181036000830152612b7a816127db565b9050919050565b6000602082019050612b9660008301846127fe565b92915050565b6000612ba6612bb7565b9050612bb28282612e13565b919050565b6000604051905090565b600067ffffffffffffffff821115612bdc57612bdb612eeb565b5b612be582612f1a565b9050602081019050919050565b600081519050919050565b600081519050919050565b600082825260208201905092915050565b600081905092915050565b600082825260208201905092915050565b6000612c4082612d95565b9150612c4b83612d95565b9250827fffffffffffffffffffffffffffffffffffffffffffffffffffffffffffffffff03821115612c8057612c7f612e8d565b5b828201905092915050565b6000612c9682612d95565b9150612ca183612d95565b9250817fffffffffffffffffffffffffffffffffffffffffffffffffffffffffffffffff0483118215151615612cda57612cd9612e8d565b5b828202905092915050565b6000612cf082612d95565b9150612cfb83612d95565b925082821015612d0e57612d0d612e8d565b5b828203905092915050565b6000612d2482612d75565b9050919050565b6000612d3682612d75565b9050919050565b60008115159050919050565b60007fffffffff0000000000000000000000000000000000000000000000000000000082169050919050565b600073ffffffffffffffffffffffffffffffffffffffff82169050919050565b6000819050919050565b82818337600083830152505050565b60005b83811015612dcc578082015181840152602081019050612db1565b83811115612ddb576000848401525b50505050565b60006002820490506001821680612df957607f821691505b60208210811415612e0d57612e0c612ebc565b5b50919050565b612e1c82612f1a565b810181811067ffffffffffffffff82111715612e3b57612e3a612eeb565b5b80604052505050565b6000612e4f82612d95565b91507fffffffffffffffffffffffffffffffffffffffffffffffffffffffffffffffff821415612e8257612e81612e8d565b5b600182019050919050565b7f4e487b7100000000000000000000000000000000000000000000000000000000600052601160045260246000fd5b7f4e487b7100000000000000000000000000000000000000000000000000000000600052602260045260246000fd5b7f4e487b7100000000000000000000000000000000000000000000000000000000600052604160045260246000fd5b6000601f19601f8301169050919050565b7f77726f6e67206d696e742076616c756500000000000000000000000000000000600082015250565b7f4552433732313a207472616e7366657220746f206e6f6e20455243373231526560008201527f63656976657220696d706c656d656e7465720000000000000000000000000000602082015250565b7f6d696e74696e67206e6f7420656e61626c656400000000000000000000000000600082015250565b7f4f776e61626c653a206e6577206f776e657220697320746865207a65726f206160008201527f6464726573730000000000000000000000000000000000000000000000000000602082015250565b7f4552433732313a207472616e736665722066726f6d20696e636f72726563742060008201527f6f776e6572000000000000000000000000000000000000000000000000000000602082015250565b7f4552433732313a20746f6b656e20616c7265616479206d696e74656400000000600082015250565b7f4552433732313a207472616e7366657220746f20746865207a65726f2061646460008201527f7265737300000000000000000000000000000000000000000000000000000000602082015250565b7f4552433732313a20617070726f766520746f2063616c6c657200000000000000600082015250565b7f4552433732313a206f70657261746f7220717565727920666f72206e6f6e657860008201527f697374656e7420746f6b656e0000000000000000000000000000000000000000602082015250565b7f736f6c64206f7574000000000000000000000000000000000000000000000000600082015250565b7f4552433732313a20617070726f76652063616c6c6572206973206e6f74206f7760008201527f6e6572206e6f7220617070726f76656420666f7220616c6c0000000000000000602082015250565b7f4552433732313a2062616c616e636520717565727920666f7220746865207a6560008201527f726f206164647265737300000000000000000000000000000000000000000000602082015250565b7f4552433732313a206f776e657220717565727920666f72206e6f6e657869737460008201527f656e7420746f6b656e0000000000000000000000000000000000000000000000602082015250565b7f4552433732313a206d696e7420746f20746865207a65726f2061646472657373600082015250565b7f4552433732313a20617070726f76656420717565727920666f72206e6f6e657860008201527f697374656e7420746f6b656e0000000000000000000000000000000000000000602082015250565b7f657863656564206d61782077616c6c6574000000000000000000000000000000600082015250565b7f4f776e61626c653a2063616c6c6572206973206e6f7420746865206f776e6572600082015250565b7f4552433732313a20617070726f76616c20746f2063757272656e74206f776e6560008201527f7200000000000000000000000000000000000000000000000000000000000000602082015250565b50565b7f4552433732313a207472616e736665722063616c6c6572206973206e6f74206f60008201527f776e6572206e6f7220617070726f766564000000000000000000000000000000602082015250565b7f546f6b656e20646f6573206e6f74206578697374210000000000000000000000600082015250565b7f7769746864726177206661696c65640000000000000000000000000000000000600082015250565b61343681612d19565b811461344157600080fd5b50565b61344d81612d3d565b811461345857600080fd5b50565b61346481612d49565b811461346f57600080fd5b50565b61347b81612d95565b811461348657600080fd5b5056fea2646970667358221220d031380e812b71e1e51a1acdc88d5eb2ef9edafdeb8d70db4a8ded22453f372864736f6c63430008040033",
  "linkReferences": {},
  "deployedLinkReferences": {}
}